S0150000387838204C45442041746D656C2E737265631F
S11300000C942A000C9447000C9447000C9449006B
S11300100C9447000C9447000C9447000C94470040
S11300200C9447000C9447000C9447000C94470030
S11300300C9447000C9447000C9447000C94470020
S11300400C9447000C9447000C9447000C94470010
S11300500C94470011241FBECFE5D8E0DEBFCDBF0E
S113006010E0A0E6B0E0E2EBF1E002C005900D92F2
S1130070A038B107D9F720E0A0E8B0E001C01D9294
S1130080A138B207E1F70E945F000C94D7000C94EA
S113009000001F920F920FB60F9211248F9380913C
S11300A08000882319F01092800003C081E08093BF
S11300B080008F910F900FBE0F901F901895CF93D3
S11300C0DF93CDB7DEB7A0970FB6F894DEBF0FBEAF
S11300D0CDBF8FEF84BB81BB80E2E0E6F0E0DE01C0
S11300E0119601900D928A95E1F780E884BF84BF50
S11300F080E28BBF84B78F7B84BF789420E030E0AC
S113010080E090E03EC044E045BBF901EE0FFF1FE4
S113011061E070E06C0F7D1F6E0F7F1FDB014C915F
S113012042BBE3EFF1E03197F1F700C0000048E093
S113013045BBD9011896AA0FBB1F41E050E04C0FF4
S11301405D1FA40FB51F4C9142BBE3EFF1E0319763
S1130150F1F700C0000040E145BB4C9142BBA3EF66
S1130160B1E01197F1F700C0000040E245BBFB018C
S1130170408142BBA3EFB1E01197F1F700C000004A
S113018001968E31910508F4BECF809180008823BA
S113019039F02F5F3F4F2830310511F420E030E073
S11301A0E3ECF9E03197F1F700C00000A9CFF8942F
S10501B0FFCF7B
S11301B2BD00DE006F00B700DB00ED00F6007B003F
S11301C28100C0006000300018000C00060003002B
S9030000FC
