S01C000061746D656761333220414443206F66666C696E652E7372656349
S11300000C94A7000C94BC000C94BC000C94BC0091
S11300100C94BC000C94BC000C94BC000C94BC006C
S11300200C94BC000C94BC000C94BC000C94BC005C
S11300300C94BC000C94BC000C94BC000C94BC004C
S11300400C94BC000C94BC000C94BC000C94BC003C
S11300500C94BC0000407A10F35A00A0724E1809A8
S11300600010A5D4E80000E87648170000E40B541B
S1130070020000CA9A3B000000E1F50500008096EA
S11300809800000040420F000000A086010000001C
S1130090102700000000E8030000000064000000D6
S11300A000000A00000000000100000000002C769F
S11300B0D888DC674F0823DFC1DFAE59E1B1B796BA
S11300C0E5E3E453C63AE651997696E8E6C2842617
S11300D0EB898C9B62ED407C6FFCEFBC9C9F40F2F3
S11300E0BAA56FA5F490055A2AF75C936B6CF9676F
S11300F06DC11BFCE0E40D47FEF520E6B500D0ED34
S1130100902E0300943577050080841E080000209B
S11301104E0A000000C80C333333330F986E128339
S11301201141EF8D2114893BE65516CFFEE6DB180D
S1130130D1844B381BF77C1D901DA4BBE4242032D2
S113014084725E228100C9F124ECA1E53D271124CB
S11301501FBECFE5D8E0DEBFCDBF10E0A0E6B0E023
S1130160E4E2FFE002C005900D92A637B107D9F78B
S11301700E9499030C9490070C940000672B09F0DB
S1130180DFC0009721F48BB38E7F8BBB0895813041
S1130190910521F48BB38D7F8BBB0895823091053B
S11301A021F48BB38B7F8BBB08958330910521F4AD
S11301B08BB3877F8BBB08958430910521F48BB377
S11301C08F7E8BBB08958530910521F48BB38F7D91
S11301D08BBB08958630910521F48BB38F7B8BBB49
S11301E008958730910521F48BB38F778BBB0895E5
S11301F08A30910521F488B38E7F88BB08958B30B3
S1130200910521F488B38D7F88BB08958C309105C6
S113021021F488B38B7F88BB08958D30910521F438
S113022088B3877F88BB08958E30910521F488B305
S11302308F7E88BB08958F30910521F488B38F7D1C
S113024088BB08958031910521F488B38F7B88BBE6
S113025008958131910521F488B38F7788BB08957F
S11302608431910521F485B38E7F85BB0895853152
S1130270910521F485B38D7F85BB08958631910561
S113028021F485B38B7F85BB08958731910521F4D3
S113029085B3877F85BB08958831910521F485B3A3
S11302A08F7E85BB08958931910521F485B38F7DB7
S11302B085BB08958A31910521F485B38F7B85BB75
S11302C008958B31910521F485B38F7785BB08950B
S11302D08E31910521F482B38E7F82BB08958F31D4
S11302E0910521F482B38D7F82BB089580329105FC
S11302F021F482B38B7F82BB08958132910521F46E
S113030082B3877F82BB08958232910521F482B340
S11303108F7E82BB08958332910521F482B38F7D51
S113032082BB08958432910521F482B38F7B82BB12
S11303300895859709F0E1C082B38F7782BB089551
S1130340009721F48BB381608BBB089581309105B4
S113035021F48BB382608BBB08958230910521F424
S11303608BB384608BBB08958330910521F48BB3E8
S113037088608BBB08958430910521F48BB3806130
S11303808BBB08958530910521F48BB380628BBBC0
S113039008958630910521F48BB380648BBB089556
S11303A08730910521F48BB380688BBB08958A3024
S11303B0910521F488B3816088BB08958B30910541
S11303C021F488B3826088BB08958C30910521F4B0
S11303D088B3846088BB08958D30910521F488B377
S11303E0886088BB08958E30910521F488B38061BC
S11303F088BB08958F30910521F488B3806288BB4F
S113040008958031910521F488B3806488BB0895F0
S11304108131910521F488B3806888BB08958431C3
S1130420910521F485B3816085BB089585319105DB
S113043021F485B3826085BB08958631910521F44A
S113044085B3846085BB08958731910521F485B314
S1130450886085BB08958831910521F485B3806156
S113046085BB08958931910521F485B3806285BBEC
S113047008958A31910521F485B3806485BB08957C
S11304808B31910521F485B3806885BB08958E3145
S1130490910521F482B3816082BB08958F31910567
S11304A021F482B3826082BB08958032910521F4E5
S11304B082B3846082BB08958132910521F482B3B2
S11304C0886082BB08958232910521F482B38061F1
S11304D082BB08958332910521F482B3806282BB8A
S11304E008958432910521F482B3806482BB089517
S11304F0859719F482B3806882BB0895CF93C82F7F
S113050080FF07C061E070E082E290E00E94BE00DC
S113051006C060E070E082E290E00E94BE00C1FF8D
S113052007C061E070E083E290E00E94BE0006C074
S113053060E070E083E290E00E94BE00C2FF07C06A
S113054061E070E084E290E00E94BE0006C060E0DA
S113055070E084E290E00E94BE00C3FF07C061E047
S113056070E085E290E00E94BE0006C060E070E0AA
S113057085E290E00E94BE00CF910895CF93C82FEA
S113058060E070E08AE190E00E94BE008C2F0E943F
S11305907E0261E070E08BE190E00E94BE0089EF92
S11305A090E00197F1F700C0000060E070E08BE19B
S11305B090E00E94BE0089EF90E00197F1F700C03F
S11305C00000CF91089580E00E94BE0281E00E9465
S11305D0BE020895CF93813061F480E8860FC62F60
S11305E0CF7082958F700E94BE028C2F0E94BE0233
S11305F00DC0823059F480EC860FC62FCF708295DF
S11306008F700E94BE028C2F0E94BE02CF9108956B
S113061080E00E947E0287E893E10197F1F700C031
S1130620000083E00E94BE0281EE94E00197F1F79E
S113063000C0000083E00E94BE028DEB9AE00197A7
S1130640F1F700C0000083E00E94BE0282E00E9435
S1130650BE0282E00E94BE0288E00E94BE0280E0E8
S11306600E94BE028CE00E94BE0280E00E94BE0294
S113067086E00E94BE020895CF93DF93D82FDF70E7
S1130680C82FC07F61E070E08AE190E00E94BE0064
S11306908C2F82958F700E947E0261E070E08BE166
S11306A090E00E94BE0089EF90E00197F1F700C04E
S11306B0000060E070E08BE190E00E94BE0089EFF2
S11306C090E00197F1F700C000008D2F0E947E0298
S11306D061E070E08BE190E00E94BE0089EF90E061
S11306E00197F1F700C0000060E070E08BE190E05A
S11306F00E94BE0089EF90E00197F1F700C000006E
S1130700DF91CF9108950F931F93CF93DF938C01C3
S1130710C0E0D0E003C00E943C032196F801EC0F36
S1130720FD1F80818111F7CFDF91CF911F910F9130
S11307300895CF93DF93CDB7DEB764970FB6F894DF
S1130740DEBF0FBECDBF8FEF81BB84BB84E487B90E
S113075085E886B90E94080361E081E00E94EA020C
S113076080E690E00E9483032FE986E891E021501F
S113077080409040E1F700C0000086B1806486B9F3
S11307803699FECF24B185B190E0982F8827820F47
S1130790911DBC01660F771F660F771F680F791FC5
S11307A0072E000C880B990B0E94030420E030E014
S11307B040E85AE30E943E048E010F5F1F4F22E07F
S11307C044E00E94FC048AE0EBE6F0E0DE011696C9
S11307D001900D928A95E1F7B801CE0106960E9428
S11307E01C050E94E302CE0106960E9483032FEFAC
S11307F080E792E0215080409040E1F700C0000083
S1130800BCCFE89409C097FB3EF490958095709511
S113081061957F4F8F4F9F4F9923A9F0F92F96E948
S1130820BB279395F695879577956795B795F111BD
S1130830F8CFFAF4BB0F11F460FF1BC06F5F7F4F5A
S11308408F4F9F4F16C0882311F096E911C077236C
S113085021F09EE8872F762F05C0662371F096E875
S1130860862F70E060E02AF09A95660F771F881F44
S1130870DAF7880F9695879597F908950E945104A1
S11308800C94C2040E94B40438F00E94BB0420F00B
S1130890952311F00C94AB040C94B10411240C9422
S11308A0F6040E94D30470F3959FC1F3950F50E0B2
S11308B0551F629FF001729FBB27F00DB11D639F0E
S11308C0AA27F00DB11DAA1F649F6627B00DA11DB4
S11308D0661F829F2227B00DA11D621F739FB00D5A
S11308E0A11D621F839FA00D611D221F749F3327CA
S11308F0A00D611D231F849F600D211D822F762F63
S11309006A2F11249F5750409AF0F1F088234AF03F
S1130910EE0FFF1FBB1F661F771F881F91505040AB
S1130920A9F79E3F510580F00C94AB040C94F60497
S11309305F3FE4F3983ED4F3869577956795B79532
S1130940F795E7959F5FC1F7FE2B880F911D96954C
S1130950879597F9089597F99F6780E870E060E0BC
S113096008959FEF80EC089500240A941616170644
S113097018060906089500240A941216130614068C
S113098005060895092E0394000C11F4882352F0EF
S1130990BB0F40F4BF2B11F460FF04C06F5F7F4FA7
S11309A08F4F9F4F089557FD9058440F551F59F08E
S11309B05F3F71F04795880F97FB991F61F09F3F48
S11309C079F087950895121613061406551FF2CF71
S11309D04695F1DF08C0161617061806991FF1CFC1
S11309E086957105610508940895E894BB276627E8
S11309F07727CB0197F90895EF920F931F93CF9325
S1130A00DF93E80147FD02C034E001C034E1042E65
S1130A10000C550B57FF03C0519541955109E32E26
S1130A20022F242FAE010E942705CE01DF91CF9122
S1130A301F910F91EF900895FB01DC010D900020B0
S1130A40E9F7119701900D920020E1F70895A9E0CC
S1130A50B0E0EDE2F5E00C945F076A01122FB02ECE
S1130A602BE3201720F0FF24F394F00E02C02CE3B4
S1130A70F22E0F2D27E0AE014F5F5F4F0E948106DB
S1130A80BC014981842F8970813031F0E1FC06C0BA
S1130A90E0FE06C090E205C09DE203C09BE201C0F7
S1130AA090E05E2D507143FF3CC0911102C083E081
S1130AB001C084E0811718F4212F281B01C020E015
S1130AC051110BC0F601822F30E2882319F03193C3
S1130AD08150FBCFC20ED11C20E0992329F0D6010E
S1130AE09C93F60131966F01C6010396E2FE0AC09B
S1130AF03EE4D6013C9341E411964C93119712962F
S1130B003C9306C03EE6F601308341E641833283DE
S1130B10FC01322F40E2332309F442C041933150A7
S1130B20FACF42FF44C0911102C083E001C084E0C7
S1130B30811718F4212F281B01C020E051110BC08C
S1130B40F601822F30E2882319F031938150FBCFD4
S1130B50C20ED11C20E0992329F0D6019C93F60102
S1130B6031966F01C6010396E2FE0BC039E4D6014B
S1130B703C933EE411963C93119736E412963C93D1
S1130B8007C039E6F60130833EE6318336E6328328
S1130B90FC01322F40E2332319F041933150FBCF53
S1130BA0FC01E20FF11D10828EEF9FEFA6C021E041
S1130BB030E0911102C020E030E0161617061CF454
S1130BC0FB01319602C0E1E0F0E02E0F3F1FBB2095
S1130BD021F0EB2DF0E0319602C0E0E0F0E02E0FC2
S1130BE03F1FE12FF0E02E173F071CF4121B212FAB
S1130BF001C020E08E2D887159F4F601822F30E275
S1130C00882319F031938150FBCFC20ED11C20E010
S1130C10992329F0D6019C93F60131966F01511165
S1130C200BC0F601822F90E3882319F09193815031
S1130C30FBCFC20ED11C20E00F2D060F9A81342F5A
S1130C40307144FF03C0913309F40150101624F4A9
S1130C50093018F008E001C001E0AB0177FF02C0E1
S1130C6040E050E0FB01E41BF50BA1E0B0E0AC0F69
S1130C70BD1FEA0FFB1F8EE2A82E4B01801A9108BC
S1130C800B2D10E01195019511094F3FBFEF5B0744
S1130C9021F4D601AC9211966D01641775072CF0FE
S1130CA08416950614F4818101C080E341505109F2
S1130CB03196D60111967D014017510724F0D601D3
S1130CC08C936701E2CF6417750739F4963320F4E7
S1130CD0953319F4311101C081E3F6018083F701E2
S1130CE0822F90E2882319F091938150FBCFF70172
S1130CF0E20FF11D108280E090E02996ECE00C9464
S1130D007B07283008F027E03327DA01990F311DDB
S1130D1087FD916000966105710539F432602E5F9C
S1130D203D9330E32A95E1F708959F3F30F08038F2
S1130D307105610509F03C5F3C5F3D93913008F01B
S1130D408068911DDF93CF931F930F93FF92EF92CF
S1130D50192F987F9695E92F96959695E90FFF2779
S1130D60E255FF4F99273327EE24FF24A701E7011B
S1130D7005900894079428F4360FE71EF81E491FBF
S1130D80511D660F771F881F991F0694A1F70590C0
S1130D90079428F4E70EF81E491F561FC11D770F4C
S1130DA0881F991F661F0694A1F70590079428F4DD
S1130DB0F80E491F561FC71FD11D880F991F661FA4
S1130DC0771F0694A1F70590079420F4490F561F46
S1130DD0C71FD81F990F661F771F881F0694A9F78E
S1130DE084911095177041F0D695C79557954795FE
S1130DF0F794E7941A95C1F7E4E5F0E06894159048
S1130E00159135916591959105907FE27395E1185F
S1130E10F10A430B560BC90BD009C0F7E10CF11EC4
S1130E20431F561FC91FD01D7EF4703311F48A95D9
S1130E30E6CFE894015030F0080F0AF400270217B7
S1130E4008F4202F2395022F7A3328F079E37D9339
S1130E502A95E9F710C07D932A9589F6069497950B
S1130E606795379517951794E118F10A430B560BBC
S1130E70C90BD00998F023957E9173957A3308F0C5
S1130E8070E37C932013B8F77E9170617D9330F00A
S1130E90839571E37D9370E32A95E1F71124EF9034
S1130EA0FF900F911F91CF91DF91992787FD909526
S1130EB008952F923F924F925F926F927F928F92FA
S1130EC09F92AF92BF92CF92DF92EF92FF920F93D5
S1130ED01F93CF93DF93CDB7DEB7CA1BDB0B0FB6DF
S1130EE0F894DEBF0FBECDBF09942A88398848889C
S1130EF05F846E847D848C849B84AA84B984C88432
S1130F00DF80EE80FD800C811B81AA81B981CE0F28
S1130F10D11D0FB6F894DEBF0FBECDBFED0108950D
S1070F20F894FFCF6F
S1130F244C6F6164696E672E2E2E00566F6C74616B
S1090F3467653A2000008D
S9030000FC
